:100000000C94E3150C940D160C940D160C940D160F
:100010000C940D160C940D160C940D160C940D16D4
:100020000C940D160C94DD8A0C940D160C940D1680
:100030000C940D160C94353D0C940D160C940D1665
:100040000C940D160C94AA670C94A87E0C940D16B3
:100050000C94B3340C94A9340C940D160C940D1616
:100060000C940D160C940D160C940D160C940D1684
:100070000C940D160C940D160C940D160C940D1674
:100080000C940D160C940D160C940D163D32423244
:10009000473251327F327F325B3263326B3275329C
:1000A000267C297C1C7C207C407C407C2D7C317C07
:1000B000377C3B7C6C9A2B996299A89A62996299D9
:1000C0006299629962996299629962996299629958
:1000D0006299629962996299629962996299629948
:1000E0006299629962996299629962996299629938
:1000F000A29A6299629962996299629962996299E7
:1001000062997B9A629962996299629962996299FD
:100110006299629962996299BF9A5F992CE105E1AF
:1001200008E12FE10BE10EE111E11DE114E12AE10B
:1001300017E11AE14E414E494E495459494E46CDB8
:10014000CCCC3D0AD7233C17B7D13877CC2B32958E
:1001500095E6241FB14F0A000020410000C842006C
:10016000401C4620BCBE4CCA1B0E5AAEC59D740036
:10017000407A10F35A00A0724E18090010A5D4E876
:100180000000E87648170000E40B54020000CA9A09
:100190003B000000E1F5050000809698000000405B
:1001A000420F000000A086010000001027000000A0
:1001B00000E803000000006400000000000A0000E6
:1001C0000000000100000000002C76D888DC674F9A
:1001D0000823DFC1DFAE59E1B1B796E5E3E453C6CA
:1001E0003AE651997696E8E6C28426EB898C9B62C2
:1001F000ED407C6FFCEFBC9C9F40F2BAA56FA5F46C
:1002000090055A2AF75C936B6CF9676DC11BFCE093
:10021000E40D47FEF520E6B500D0ED902E030094E6
:100220003577050080841E080000204E0A0000007B
:10023000C80C333333330F986E12831141EF8D2185
:1002400014893BE65516CFFEE6DB18D1844B381BEC
:10025000F77C1D901DA4BBE424203284725E2281B1
:1002600000C9F124ECA1E53D27434F4D4D554E49C2
:10027000434154494F4E0044525952554E00455245
:10028000524F525300494E464F004543484F00538A
:100290006C6565702E2E2E00486F6D6520257325C8
:1002A00073257320466972737400436C69636B2015
:1002B000746F20526573756D652E2E2E004E6F2063
:1002C0004D6F76652E00456E642066696C65206C06
:1002D0006973740A00426567696E2066696C6520FF
:1002E0006C6973740A004E6F206D656469610A0061
:1002F000286E6F2066696C65290043757272656EA1
:10030000742066696C653A20005344207072696EEF
:1003100074696E67206279746520004E6F74205393
:1003200044207072696E74696E670A0044656C657A
:1003300074696F6E206661696C65642C2046696C17
:10034000653A200046696C652064656C6574656477
:100350003A00256979202569642025696820256986
:100360006D20256973005072696E742074696D6523
:100370003A200045202553006F66660044454255EB
:10038000473A004D3131322053687574646F776E8F
:10039000004D31313320530042656420436F6F6C50
:1003A000696E672E2E2E004265642048656174696F
:1003B0006E672E2E2E0043522D3130204F46462E92
:1003C000004348414D4245525F54454D50455241CE
:1003D0005455524500424142595354455050494E9C
:1003E000470041524353004D4F54494F4E5F4D4FCC
:1003F00044455300544845524D414C5F50524F5470
:10040000454354494F4E004C4F4E475F46494C457B
:100410004E414D45004155544F5245504F52545F47
:1004200053445F5354415455530053444341524441
:100430000050524F4D50545F535550504F5254003E
:10044000454D455247454E43595F504152534552E1
:1004500000434153455F4C494748545F4252494726
:1004600048544E45535300544F47474C455F4C4901
:100470004748545300534F4654574152455F504FDD
:10048000574552004255494C445F50455243454EF2
:1004900054004C4556454C494E475F444154410039
:1004A0005A5F50524F42450052554E4F55540041ED
:1004B00055544F4C4556454C005052494E545F4A96
:1004C0004F420050524F4752455353004155544FED
:1004D0005245504F52545F54454D5000564F4C5565
:1004E0004D45545249430042494E4152595F464995
:1004F0004C455F5452414E53464552005345524974
:10050000414C5F584F4E5F584F4646004649524D4A
:10051000574152455F4E414D453A4D61726C696E8F
:1005200020322E302E372E32202846656220203190
:1005300020323032312031373A32323A31302920CC
:10054000534F555243455F434F44455F55524C3AD4
:1005500068747470733A2F2F6769746875622E63BC
:100560006F6D2F4D61726C696E4669726D77617245
:10057000652F4D61726C696E2050524F544F434F3E
:100580004C5F56455253494F4E3A312E30204D4123
:100590004348494E455F545950453A43522D3130F6
:1005A0002045585452554445525F434F554E543A96
:1005B0003120555549443A63656465326132662D90
:1005C000343161322D343734382D396231322D6374
:1005D00035356336326633363766660A002F2F208C
:1005E000004D31343520533C696E6465783E206F90
:1005F0007574206F662072616E67652028302D311A
:10060000290A00416363656C65726174696F6E3AB3
:100610002050003F4A206F7574206F662072616E13
:1006200067652028302E303120746F20302E33291A
:100630000A0020204D61783A200020204D696E3A52
:100640002000536F667420656E6473746F70733A24
:10065000200046523A0020466C6F773A2000206412
:100660003A0020693A0020703A00496E76616C6960
:10067000642065787472756465720A006469730039
:1006800043290A0061626C656420286D696E2074DC
:10069000656D702000436F6C6420657874727564BA
:1006A0006573206172652000454550524F4D204FC3
:1006B0004B0A00446F6E65207072696E74696E67D4
:1006C0002066696C650A004D3737004D3331008A6A
:1006D0000285027E02770269024572726F7220778C
:1006E000726974696E6720746F20454550524F4D92
:1006F000210A004D343130004D313132004D31305E
:10070000380053544F505045442E20005072696EAB
:100710007465722073746F707065642064756520F1
:10072000746F206572726F72732E20466978207420
:100730006865206572726F7220616E6420757365E2
:10074000204D39393920746F207265737461727469
:100750002E202854656D706572617475726520690C
:10076000732072657365742E20536574206974203C
:1007700061667465722072657374617274696E6704
:10078000290A004E6F20436865636B73756D20778F
:10079000697468206C696E65206E756D6265722C77
:1007A000204C617374204C696E653A200063686563
:1007B000636B73756D206D69736D617463682C2054
:1007C0004C617374204C696E653A20004C696E650B
:1007D000204E756D626572206973206E6F74204CB7
:1007E000617374204C696E65204E756D6265722B65
:1007F000312C204C617374204C696E653A20004D99
:100800003131300053442072656164206572726F2B
:10081000720A002121204B494C4C2063617573659D
:100820006420627920746F6F206D75636820696E33
:100830006163746976652074696D65202D20637528
:100840007272656E7420636F6D6D616E643A200024
:10085000627573793A2070617573656420666F7292
:1008600020696E7075740A00627573793A20706140
:100870007573656420666F7220757365720A006215
:100880007573793A2070726F63657373696E670A66
:10089000004D6564696120496E736572746564001A
:1008A000506C6561736520526573657400505249E0
:1008B0004E5445522048414C5445440025533A205B
:1008C0002553004B494C4C45442E20005072696E14
:1008D0007465722068616C7465642E206B696C6C41
:1008E00028292063616C6C6564210A00416476618B
:1008F0006E6365642053657474696E677300554E4A
:100900004C4F41442046494C414D454E54004649C8
:100910004C414D454E54204348414E4745004E659D
:10092000787420436F726E657200446F6E65004E7E
:1009300065787400486F6D696E672058595A005287
:100940006573746F72652044656661756C747300BD
:100950004C6F61642053657474696E6773005374DF
:100960006F72652053657474696E677300507265A9
:1009700068656174202420436F6E66004D37303205
:1009800020542564004D36303020423020542564F8
:10099000004D373032203B2564004D373031205434
:1009A000256400436F6E74696E75650050757267DB
:1009B00065206D6F726500524553554D45204F506F
:1009C00054494F4E533A005052494E5420504155CD
:1009D0005345440020204E6F7A7A6C653A200020FF
:1009E000520020204D363033200020550046696CDF
:1009F000616D656E74206C6F61642F756E6C6F61D4
:100A000064206C656E677468733A0020204D333043
:100A10003420500020490020204D33303120500038
:100A20005049442073657474696E67733A002046B8
:100A30000020480020204D3134352053004D617492
:100A4000657269616C20686561747570207061728F
:100A5000616D65746572733A00204A0020204D3242
:100A60003035204200416476616E6365643A20420D
:100A70003C6D696E5F7365676D656E745F74696DFB
:100A8000655F75733E20533C6D696E5F6665656496
:100A9000726174653E20543C6D696E5F747261765C
:100AA000656C5F66656564726174653E204A3C6A88
:100AB000756E635F6465763E0020540020204D32E1
:100AC0003034205000416363656C65726174696FF6
:100AD0006E2028756E6974732F7332293A20503C4A
:100AE0007072696E745F616363656C3E20523C7224
:100AF0006574726163745F616363656C3E20543C2E
:100B000074726176656C5F616363656C3E00202082
:100B10004D3230312058004D6178696D756D20413E
:100B20006363656C65726174696F6E2028756E69A8
:100B300074732F7332293A0020204D3230332058FD
:100B4000004D6178696D756D2066656564726174CC
:100B500065732028756E6974732F73293A00537476
:100B60006570732070657220756E69743A00204458
:100B70000020204D323030205300204469736162E0
:100B80006C65640A0046696C616D656E74207365FE
:100B90007474696E67733A0020204D3134392043F4
:100BA000203B20556E69747320696E2043656C7319
:100BB0006975730A0020286D6D29002020473231A5
:100BC000202020203B20556E69747320696E206DB3
:100BD0006D0020436F756E7420583A0024F4D430B1
:100BE00050C38E20C2A24017828B7011127A910DD1
:100BF000816CD90AA861E108C758660761514306AC
:100C00001E4B5D05C145A7041A411104093D980317
:100C1000713931034036DB0265339102D43054021E
:100C2000802E1D02632CEE01752AC501B028A0019B
:100C3000102781018F2564012B244B01E022340110
:100C4000AC211F018D200D01801FFC00841EED00D2
:100C5000971DDF00B81CD200E61BC600201BBC009D
:100C6000641AB200B219A8000A19A0006A18990003
:100C7000D117910040178B00B516840031167E0005
:100C8000B31579003A157300C7146F0058146A0041
:100C9000EE1366008813630025135E00C7125B0025
:100CA0006C12570015125400C111510070114F0001
:100CB00021114B00D61049008D104700461044000A
:100CC00002104200C00F4000800F3E00420F3C0067
:100CD000060F3B00CB0E3800930E37005C0E35003C
:100CE000270E3400F30D3200C10D3100900D30009D
:100CF000600D2E00320D2D00050D2C00D90C2B009F
:100D0000AE0C2900850C29005C0C2700350C27004F
:100D10000E0C2600E80B2400C40B2400A00B2300BB
:100D20007D0B23005A0B2100390B2100180B2000EA
:100D3000F80A1F00D90A1E00BB0A1E009D0A1D00EA
:100D4000800A1D00630A1C00470A1B002C0A1B00B6
:100D5000110A1A00F7091A00DD091900C40919005F
:100D6000AB091900920917007B09180063091700E5
:100D70004C09160036091600200916000A0915004C
:100D8000F5081500E0081400CC081400B808140099
:100D9000A4081400900813007D0812006B081300CB
:100DA00058081200460812003408110023081100E8
:100DB0001208110001081100F0071000E0071000F0
:100DC000D0071000C0071000B0070F00A1071000E7
:100DD00091070E0083070F0074070F0065070E00D0
:100DE00057070E0049070E003B070D002E070E00A7
:100DF00020070D0013070D0006070D00F9060C0073
:100E0000ED060D00E0060C00D4060C00C8060C0030
:100E1000BC060C00B0060C00A4060B0099060C00E2
:100E20008D060B0082060B0077060B006C060B008C
:100E300061060A0057060B004C060A0042060A002B
:100E400038060A002E060A0024060A001A060A00BE
:100E50001006090007060A00FD050900F40509004F
:100E6000EB050900E2050900D9050900D0050900D4
:100E7000C7050900BE050900B5050800AD05080055
:100E8000A50509009C050800940508008C050800CC
:100E9000840508007C050800740508006C0507003F
:100EA000650508005D050700560508004E050700AA
:100EB0004705070040050800380507003105070011
:100EC0002A050700230507001C0506001605070074
:100ED0000F0507000805060002050700FB040600D1
:100EE000F5040700EE040600E8040600E20407002B
:100EF000DB040600D5040600CF040600C904060082
:100F0000C3040600BD040600B7040600B1040500D2
:100F1000AC040600A6040600A00405009B0406001D
:100F200095040500900406008A0405008504050068
:100F3000800406007A0405007504050070040500AD
:100F40006B04050066040500610405005C040500EF
:100F500057040500520405004D040500480405002F
:100F6000430405003E0404003A040500350405006E
:100F7000300404002C0405002704040023040500A9
:100F80001E0404001A0404001604050011040400E1
:100F90000D04040009040500040404000004040016
:100FA000FC030400F8030400F4030400F00304004D
:100FB000EC030400E8030400E4030400E00304007D
:100FC000DC030400D8030400D4030400D0030400AD
:100FD000CC030400C8030300C503030024F404D9B0
:100FE000201BC40C5C0E9804C4095F0265077101E4
:100FF000F405F900FB04B30048048700C10369004D
:101000005803550003034500BE023A008402310034
:1010100053022A002902250004022000E4011C00DA
:10102000C8011900AF0117009801140084011300D2
:10103000710110006101100051010E0043010D000B
:1010400036010B002B010B0020010B0015010900DC
:101050000C01090003010800FB000800F300080070
:10106000EB000700E4000600DE000600D8000600E2
:10107000D2000600CC000500C7000500C200050034
:10108000BD000400B9000400B5000400B100040074
:10109000AD000400A9000400A5000300A2000300A5
:1010A0009F0004009B0003009800030095000200CD
:1010B00093000300900003008D0002008B000300EA
:1010C0008800020086000200840003008100020004
:1010D0007F0002007D0002007B0002007900020018
:1010E0007700010076000200740002007200010027
:1010F000710002006F0002006D0001006C00020030
:101100006A0001006900020067000100660001003A
:10111000650001006400020062000100610001003E
:10112000600001005F0002005D0001005C00010042
:101130005B0001005A000100590001005800010045
:101140005700010056000100550001005400010045
:101150005300000053000100520001005100010043
:10116000500001004F0001004E0000004E00010041
:101170004D0001004C0001004B0000004B0001003D
:101180004A00010049000100480000004800010039
:101190004700010046000000460001004500000035
:1011A000450001004400010043000000430001002D
:1011B0004200000042000100410000004100010027
:1011C000400001003F0000003F0001003E00000021
:1011D0003E0001003D0000003D0001003C00000019
:1011E0003C0000003C0001003B0000003B0001000F
:1011F0003A0000003A000100390000003900010007
:1012000038000000380000003800010037000000FE
:1012100037000100360000003600000036000100F3
:1012200035000000350000003500010034000000EA
:1012300034000000340001003300000033000000DF
:1012400033000100320000003200000032000100D3
:1012500031000000310000003100010030000000CA
:1012600030000000300001002F0000002F000000BF
:101270002F0000002F0001002E0000002E000000B3
:101280002E0001002D0000002D0000002D000000A8
:101290002D0001002C0000002C0000002C0000009C
:1012A0002C0001002B0000002B0000002B00000090
:1012B0002B0001002A0000002A0000002A00000084
:1012C0002A00010029000000290000002900000078
:1012D000290000002900010028000000280000006B
:1012E000280000002800000028000100270000005E
:1012F0002700000027000000270000002700010051
:101300002600000026000000260000002600000045
:101310002600010025000000250000002500000037
:101320002500000025000000250001002400000029
:10133000240000002400000024000000240001001C
:101340002300000023000000230000002300000011
:101350002300000023000000230001002200000001
:1013600022000000220000002200000022000000F5
:1013700022000100210000002100000021000000E7
:1013800021000000210000002100000021000100D8
:1013900020000000200000002000000020000000CD
:1013A00020000000200000002000000020000100BC
:1013B0001F0000001F0000001F0000001F000000B1
:1013C0001F0000001F0000001F0001001E000000A1
:1013D0001E0000001E0000001E0000000437000078
:1013E0001E290000511B00005810000010090000C9
:1013F000CC040000780200004101000020746F6FEF
:10140000206C6F6E6720657874727573696F6E20DB
:1014100070726576656E7465640A0020636F6C6433
:1014200020657874727573696F6E20707265766569
:101430006E7465640A00DB0FC93F45BCDA3F8FB3A9
:101440000240FCF0274056946140FE4B9B4084A52F
:10145000D840E0231841346A5641E859974164DB8B
:10146000D5416E271742B4B75542CE1A9742C8AE3F
:10147000D542B5885A43D40684BFA65FA7BF74433C
:10148000E0BF10B11AC01C2C58C0E8F697C0B8498C
:10149000D6C04E4E17C124D355C1802497C1A0B5E4
:1014A000D5C1121A17C244AE55C2781797C26CAC98
:1014B000D5C267885AC34C6F6164206D6D00556E4C
:1014C0006C6F6164206D6D0046696C2E204469610B
:1014D0002E004520696E206D6DC2B30020082046A5
:1014E000616374002008204D6178002008204D6958
:1014F0006E004F6666004F6E004175746F74656DC7
:1015000070005654726176204D696E00566D696E9A
:1015100000566D6178204500566D6178205A00565E
:101520006D6178205900566D61782058001FE020C9
:101530001020102010102010202010201030300813
:1015400040048003001FE03FF03FF03FF01FE01F2A
:10155000E03FF03FF03FF00FC0078003003FFFF097
:1015600038007030FC3020FC102078102030102C17
:1015700000D02E31D02F7BD02F7BD02E31D02C001D
:10158000D020301020781020FC1030FC3038007053
:101590003FFFF03FFFF0380070318630238710277F
:1015A00087902F87D02F03D02030102078102078FC
:1015B000102030102F03D02F87D02787902387103B
:1015C0003186303800703FFFF01FFFF81FFFF8042E
:1015D000104002082002082004104008208010411A
:1015E000001041000820800410400000001FFFF898
:1015F0001FFFF82568753A25303268750025687533
:10160000642025303268753A253032687500202014
:10161000202020202000453100626564002C2073CA
:10162000797374656D2073746F70706564212048E0
:1016300065617465725F49443A2000486561746968
:101640006E67204661696C65640048656174696E07
:1016500067206661696C656400202D20496E7661A3
:101660006C6964206578747275646572206E756D3E
:1016700062657220210A00544845524D414C205267
:10168000554E4157415900546865726D616C205246
:10169000756E61776179004572723A204D415854F8
:1016A000454D50004D415854454D50207472696766
:1016B0006765726564004572723A204D494E544523
:1016C0004D50004D494E54454D5020747269676726
:1016D0006572656400202F002042403A0020403AA5
:1016E000004D38340054656D7065726174757265B3
:1016F0000041425300504C4100507265686561746E
:1017000020240046616E205370656564004E6F7A38
:101710007A6C65004D61696E0044697361626C6545
:10172000205374657070657273004C6576656C202B
:10173000436F726E657273004175746F20486F6DF0
:101740006500473238005072656865617420242056
:10175000456E64005072656865617420242042659E
:101760006400436F6F6C646F776E004261627973DF
:10177000746570205A00466C6F7700F516F11650AC
:1017800072696E742066726F6D204D6564696100C8
:101790005072696E7420506175736564004D6F7688
:1017A000652025736D6D004D6F766520302E316D8F
:1017B0006D004D6F766520316D6D004D6F76652043
:1017C00031306D6D004D6F7665204178697300454D
:1017D00078747275646572004D6F7665205A004D9D
:1017E0006F76652059004D6F7665205800220A00FB
:1017F000556E6B6E6F776E20636F6D6D616E643AC0
:1018000020220043522D31302052656164792E0030
:101810005072696E74696E672E2E2E0020453A0054
:10182000205A3A0020593A00000000010200090A3B
:101830000000000004030807000000000000000092
:101840000000000000000000000000000000006038
:101850000000000000FC00000FF00000000007E0A6
:101860000000000001861FC018700000000000602A
:101870003C0C000001830C60103000000000006090
:101880003C0C000001830C30303000000000006090
:10189000000C000000030C18300000000000006085
:1018A000003F0F3C00030C0C6001DF0FE0FE006006
:1018B0001C1C061800060C0C6000F3183183006035
:1018C0000C0C0318001E0C0C6000E0303983006023
:1018D0000C0C033000030C0C6000C030380F0060AB
:1018E0000C0C033000018C0C6000C03FF8FB006062
:1018F0000C0C033000018C0C6030C03001830060A0
:101900000C0C01F001818C0C6030C0300183006050
:101910000C0C00E001818C183030C018318300605D
:101920000C0C40E001838C301860C00C6187C0E073
:101930001C0CC06000C30C600FC3F007C0FFC7FCE5
:101940007F0781C0007E1FC0000000000000000073
:101950000000070000000000000000000000000080
:10196000000007000000000001FFFFFFFFFFFFFF76
:10197000FFFFFFFFFFFF0FFFFFFFFFFFFFFFFFFF67
:10198000FFFFFFFF1E000000000000000000000736
:10199000FFFF380000000000000000000003FFFF10
:1019A000700000000000000000000001FFFF600068
:1019B00000000000000000000000FFFF60000000C9
:1019C00000000000000000007FFFC00000000000D9
:1019D0000000007800003FFFC00FC0FC00000000C6
:1019E000007818001FFFC03FE1FF000000000078F2
:1019F0003C000FFFC07FF3FF8000000000783C0038
:101A000007FFC0FFFFFFC000000000783C0003FF9D
:101A1000C1F87F87E00000000078000001FFC1F0FE
:101A20003F03E00000000078000000FFC1E01E015D
:101A3000E01F0003E0783C03F07FC1E01E01E07F7F
:101A4000C00FF8783C07FC3FC1E01E01E1FFE01F3A
:101A5000FC783C0FFE1FC1E01E01E3FFF03FFE7863
:101A60003C1FFE0FC1E01E01E3F3F83F3E783C3F10
:101A70003F07C1E01E01E7E0FC7C1F783C3E1F07EA
:101A8000C1E01E01E7C07C7C0F783C3C0F03C1E045
:101A90001E01E7807C780F783C3C0F03C1E01E01FB
:101AA000E7803C7800783C3C0F03C1E01E01E780F2
:101AB0003C7800783C3C0F03C1E01E01E7803C7895
:101AC00000783C3C0F03C1E01E01E7C03C78007881
:101AD0003C3C0F03C1E01E01E3E03C78007C3C3C51
:101AE0000F03C1E01E01E3FF3FF8007FBC3C0F0382
:101AF000C1E01E01E1FF3FF8003FBFFC0F03C1E062
:101B00001E01E0FF3FF8001FBFFC0F03C1E01E01F4
:101B1000E07F3FF8000FBFFC0F03600000000000F3
:101B2000000000000000000760000000000000004E
:101B3000000000000006700000000000000000002F
:101B40000000000E3800000000000000000000004F
:101B5000001C1E00000000000000000000000078D3
:101B60000FFFFFFFFFFFFFFFFFFFFFFFFFF001FF82
:101B7000FFFFFFFFFFFFFFFFFFFFFF8070012C0152
:101B800090012701B0012201C0011D01F0011801DF
:101B90001002130130020E016002090190020401DB
:101BA000C002FF000003FA004003F5008003F000CC
:101BB000D003EB002004E6007004E100E004DC0048
:101BC0004005D700C005D2004006CD00D006C800B1
:101BD0008007C3003008BE00F008B900C009B40097
:101BE000B00AAF00B00BAA00D00CA500000EA000F8
:101BF000500F9B00C01096005012910000148C00F2
:101C0000C0158700B0178200B0197D00D01B780086
:101C1000001E730040206E0090226900F0246400D2
:101C200040275F0090295A00E02B5500102E5000ED
:101C300020304B0010324600E033410090353C002C
:101C40001037370070383200A0392D00B03A280024
:101C5000A03B2300603C1E00103D1900903D140085
:101C6000103E0F00703E0A00C03E0500003F00001D
:101C7000403FFBFF803FF6FFC03FF1FF6874747088
:101C8000733A2F2F6D61726C696E66772E6F726773
:101C900000322E302E372E32002020506C616E6EB6
:101CA000657242756666657242797465733A2000A2
:101CB0002046726565204D656D6F72793A2000434C
:101CC0006F6D70696C65643A204665622020312032
:101CD000323032310A00204C6173742055706461D7
:101CE0007465643A20323032302D31302D31352058
:101CF0007C20417574686F723A2028437265616C6C
:101D00006974792043522D3130290A00322E302E49
:101D1000372E320A004D61726C696E0020536F6677
:101D200074776172652052657365740A002057618B
:101D3000746368646F672052657365740A0020429B
:101D4000726F776E206F75742052657365740A0028
:101D50002045787465726E616C2052657365740AF3
:101D600000506F77657255700A006175746F256356
:101D70002E6700473237004D3130303100657272C6
:101D80006F722077726974696E6720746F2066695C
:101D90006C650A00446F6E6520736176696E67201A
:101DA00066696C652E0A004D323900456E647374A5
:101DB0006F70730025532025632025632025632041
:101DC000256300656E6473746F7073206869743A7C
:101DD00020000000A043000096430000C84300001C
:101DE0000000000000000000000053657474696E7C
:101DF00067732053746F7265640053657474696E01
:101E000067732053746F7265642028002053697AC9
:101E1000653A20004D3233202573006F70656E20C7
:101E20006661696C65642C2046696C653A200046E1
:101E3000696C652073656C65637465640A00466946
:101E40006C65206F70656E65643A2000454E4420D5
:101E5000535542524F5554494E450A002220706F47
:101E600073002220706172656E743A2200535542ED
:101E7000524F5554494E452043414C4C2074617299
:101E80006765743A220053756263616C6C204F760B
:101E90006572666C6F77004578636565646564207C
:101EA0006D617820535542524F5554494E45206438
:101EB000657074683A310A0057726974696E6720F8
:101EC000746F2066696C653A2000646F696E670004
:101ED0004E6F772000026563686F3A004572726F3B
:101EE000723A00486F74656E6420746F6F20636F80
:101EF0006C640A00507265737320627574746F6E3F
:101F000020746F20726573756D650A005072657379
:101F10007320627574746F6E20746F2068656174CD
:101F2000206E6F7A7A6C650A00496E736572742050
:101F300066696C616D656E7420616E642070726597
:101F4000737320627574746F6E0A00204D393220ED
:101F5000580020496E76616C6964206578747275EA
:101F60006465722000456E636C6F73757265004125
:101F70006D6178204500416D6178205A00416D61A6
:101F800078205900416D6178205800412D547261CC
:101F900076656C00412D5265747261637400416313
:101FA00063656C00452073746570732F6D6D005A06
:101FB0002053746570732F6D6D00592053746570D4
:101FC000732F6D6D00582053746570732F6D6D0005
:101FD000496E6974004A756E6374696F6E2044655A
:101FE0007600416363656C65726174696F6E00565B
:101FF000656C6F636974790020573A007C3C3E5EE3
:102000002B3D3F2F5B5D3B2C2A225C000000220011
:10201000250028002B0000002100240027002A00B2
:102020000202020202020202040404040404040480
:102030000303030303030303010101010101010180
:102040000102040810204080010204081020408092
:102050000102040810204080804020100804020182
:102060003F00496E697469616C697A652045455025
:10207000524F4D005072696E742041626F727465E8
:1020800064004D323520500A4D3234005061757372
:10209000696E672E2E2E00454550524F4D205665D5
:1020A0007273696F6E204572726F720045455052AF
:1020B0004F4D20496E646578204572726F720045FD
:1020C0004550524F4D20435243204572726F72006B
:1020D00049676E6F7265004361703A00656E717595
:1020E000657565696E672022006F6B0052657365C8
:1020F0006E643A200023646566696E652044454637
:1021000041554C545F004B6420004B6920004B70DC
:102110002000504944204175746F74756E652066C7
:10212000696E6973686564212050757420746865F0
:10213000206C617374204B702C204B6920616E649D
:10214000204B6420636F6E7374616E7473206672CB
:102150006F6D2062656C6F7720696E746F20436FBE
:102160006E66696775726174696F6E2E680A0050D9
:102170004944204175746F74756E65206661696CA1
:102180006564212074696D656F75740A000A2043C7
:102190006C617373696320504944200A00204B64CA
:1021A0003A2000204B693A2000204B703A20000A68
:1021B000204E6F206F76657273686F6F740A00200F
:1021C00054753A2000204B753A2000206D61783A12
:1021D0002000206D696E3A200020643A20002062C1
:1021E0006961733A2000504944204175746F7475D9
:1021F0006E652073746172740A0050494420417501
:10220000746F74756E65206661696C656421205415
:10221000656D706572617475726520746F6F20688A
:102220006967680A00504944204175746F74756E7F
:102230006500504944204175746F74756E65206661
:1022400061696C65642120426164206578747275EF
:10225000646572206E756D6265720A0043616E631B
:10226000656C004261636B004D6F74696F6E005363
:1022700074617274205072696E740043616E6E6F87
:102280007420656E746572207375626469723A2099
:1022900000022E2E000152656672657368002100EF
:1022A000486F74656E6420746F6F20636F6C640098
:1022B00050726F6365656400486F6D696E67204694
:1022C00061696C6564006F70656E005452494747E0
:1022D00045524544007A5F6D696E00795F6D696EA5
:1022E00000785F6D696E005265706F7274696E6719
:1022F00020656E6473746F70207374617475730AF3
:10230000005761726E696E673A20486F6D696E673B
:102310002042756D702044697669736F72203C208D
:10232000310A000000A0410000A0410000804002EE
:1023300002040000A0400000A04000000040FFFF99
:10234000FF4572723A207574663820666F6E74208D
:102350006E6F7420696E697469616C697A65642E48
:1023600000000C0F00FE07022503BB017FFE08FEE4
:1023700008FE05080806000040F0C8888898781014
:10238000050808060000C0F88888888888F80505D0
:10239000050600012030F83020050808060000205E
:1023A00070F820202020E00509090600FF2070A811
:1023B000A8B888887020070505070001D86C366C1E
:1023C000D80509090600FFF8A88888888888A8F831
:1023D000050A0A0600FE205050505088A8A88870B0
:1023E00003030306000340A040FFFFFFFFFFFFFFC2
:1023F000FFFFFFFFFFFFFFFFFFFFFFFFFFFFFF00EC
:1024000000000605FF01070706020080808080802B
:102410000080030303060105A0A0A0050606060030
:102420000050F85050F8500509090600FF2070A828
:10243000A07028A87020050707060000C8C8102053
:1024400040989805070706000040A0A040A89068A3
:102450000103030602058080800309090601FF20AD
:1024600040408080804040200309090601FF8040F1
:102470004020202040408005070706000020A8706B
:102480002070A8200505050600012020F820200264
:1024900003030601FFC04080050101060003F802A6
:1024A0000202060100C0C005070706000008101060
:1024B00020404080050707060000708898A8C8885B
:1024C0007003070706010040C040404040E0050798
:1024D00007060000708808102040F805070706006E
:1024E00000F8081030088870050707060000103053
:1024F0005090F81010050707060000F880F0080853
:102500008870050707060000304080F08888700555
:102510000707060000F8081010202020050707060E
:1025200000007088887088887005070706000070B2
:10253000888878081060020505060100C0C000C048
:10254000C00206060601FFC0C000C04080030505AA
:102550000601012040804020050303060002F80028
:10256000F8030505060101804020408005070706A5
:10257000000070881020200020050707060000706A
:1025800088B8A8B88070050707060000708888F82A
:10259000888888050707060000F04848704848F01A
:1025A000050707060000708880808088700507078F
:1025B000060000F04848484848F0050707060000B4
:1025C000F88080F08080F8050707060000F880801A
:1025D000F08080800507070600007088808098885A
:1025E00070050707060000888888F8888888030730
:1025F00007060100E04040404040E00507070600B4
:102600000038101010109060050707060000889031
:10261000A0C0A09088050707060000808080808009
:1026200080F805070706000088D8A88888888805EC
:1026300007070600008888C8A89888880507070645
:10264000000070888888888870050707060000F0F9
:102650008888F080808005070706000070888888D9
:10266000A89068050707060000F08888F0A0908809
:102670000507070600007088807008887005070746
:10268000060000F820202020202005070706000073
:1026900088888888888870050707060000888888E9
:1026A0008850502005070706000088888888A8A859
:1026B00050050707060000888850205088880507C5
:1026C0000706000088885020202020050707060004
:1026D00000F80810204080F80309090601FFE08097
:1026E000808080808080E0050707060000804040F1
:1026F000201010080309090601FFE02020202020F7
:102700002020E0050303060005205088050101068E
:1027100000FEF803030306010580402005050506B9
:10272000000070087888780507070600008080F0B0
:10273000888888F00505050600007080808870058F
:1027400007070600000808788888887805050506C8
:1027500000007088F08070050707060000304840D0
:10276000E04040400507070600FE7088888878082A
:10277000700507070600008080F0888888880307B6
:10278000070601004000C0404040E004090906017E
:10279000FE100030101010109060050707060000B2
:1027A00080808890E09088030707060100C04040C1
:1027B000404040E0050505060000D0A8A8A8A805EF
:1027C0000505060000B0C8888888050505060000D4
:1027D00070888888700507070600FEF0888888F0F2
:1027E00080800507070600FE788888887808080535
:1027F0000505060000B0C8808080050505060000BC
:1028000078807008F00507070600002020F82020D7
:1028100020180505050600008888889868050505C4
:102820000600008888885020050505060000888875
:10283000A8A8500505050600008850205088050707
:10284000070600FE888888502040800505050600A0
:1028500000F8102040F80309090601FF204040401D
:1028600080404040200109090602FF80808080806E
:10287000808080800309090601FF8040404020409D
:1028800040408005030306000248A890FF206279BB
:102890007465733B2063726320004E6F2045455082
:1028A000524F4D2E0A00454550524F4D20646174E1
:1028B0006173697A65206572726F722E0A002073E7
:1028C000746F7265642073657474696E67732072C7
:1028D0006574726965766564202800202863616CE0
:1028E00063756C6174656429210A0020213D200014
:1028F000454550524F4D20435243206D69736D61E1
:10290000746368202D202873746F72656429200019
:10291000496E6465783A200044494749504F545302
:10292000204C6F616465640A0044494749504F5424
:1029300053204C6F6164696E670A00204D61726CB0
:10294000696E3D563832290A00454550524F4D2098
:1029500076657273696F6E206D69736D61746368FB
:102960002028454550524F4D3D0048617264636FC9
:102970006465642044656661756C74205365747485
:10298000696E6773204C6F616465640A003B2000C8
:1029900000401C4500401C450000C8420000C841E2
:1029A0000000A0420000A0420000C8430000BE4258
:1029B000F4010000F401000064000000881300002E
:1029C000436F6E66696775726174696F6E005374E8
:1029D0006F70004368616E67652046696C616D6564
:1029E0006E74005072656865617420437573746F0E
:1029F0006D004D32310052656C65617365204D6527
:102A0000646961004D3232004D3630302042300072
:102A1000526573756D65205072696E7400417474EF
:102A2000616368204D656469610054756E6500538B
:102A3000746F70205072696E7400506175736520F8
:102A40005072696E7400496E666F205363726565DB
:102A50006E005061726B696E672E2E2E000000575B
:102A600061697420666F720066696C616D656E7471
:102A7000206368616E676500746F2073746172749F
:102A8000005761697420666F720066696C616D65DC
:102A90006E7420756E6C6F616400004E6F7A7A6C94
:102AA000652068656174696E6700506C6561736567
:102AB00020776169742E2E2E00005072657373208A
:102AC000627574746F6E00746F2068656174206E37
:102AD0006F7A7A6C650000496E736572742066695E
:102AE0006C616D656E7400616E64207072657373E5
:102AF00020627574746F6E00746F20636F6E7469FA
:102B00006E7565005761697420666F720066696C46
:102B1000616D656E74206C6F616400005072657346
:102B20007320427574746F6E00746F2072657375D4
:102B30006D65207072696E7400005761697420665B
:102B40006F72207072696E7400746F207265737595
:102B50006D652E2E2E00005761697420666F72001D
:102B600066696C616D656E742070757267650000D2
:102B700043616E6E6F74206F70656E207375626452
:102B80006972200053442063617264206F6B0A00F5
:102B90006F70656E526F6F74206661696C65640A50
:102BA00000766F6C756D652E696E6974206661695B
:102BB0006C65640A004E6F20534420636172640A9E
:102BC000000020EE06EE11241FBECFEFD0E4DEBFE2
:102BD000CDBF11E0A0E0B1E0E8EEFAEF01E00BBFFD
:102BE00002C007900D92A63FB107D9F72CE3A6EFDC
:102BF000B1E001C01D92AB30B207E1F715E1C2EEC2
:102C0000D5E104C02197FE010E94B4FAC13ED1076C
:102C1000C9F70E94CFE70C9467FD0C9400002F9237
:102C20003F924F925F926F927F928F929F92AF925C
:102C3000BF92CF92DF92EF92FF920F931F93CF93A9
:102C4000DF93CDB7DEB7CA54D1090FB6F894DEBF13
:102C50000FBECDBF2B968FAF2B97209100022196F0
:102C60002FAF219721E02093000280914D3B8D34BE
:102C700009F437C3843511F40C94C326873411F05A
:102C80000C94E82680914B3B90914C3B8B31910505
:102C900009F484C26CF48430910509F440C21CF438
:102CA000029718F11AC3459711F40C94EA2615C33C
:102CB0008A35910509F4BFC224F44C9709F4ABC2DC
:102CC0000CC38B35910509F4BAC28C35910509F016
:102CD00004C33EE7C32E31E0D32E49E2E42E49E09F
:102CE000F42E00E0312C10E0D4C280910E0B813024
:102CF00011F00C94EA2661EEC62E6BE3D62E79E233
:102D0000E72E79E0F72E10E088E5810F0E94D3923C
:102D10008823D1F00E9452924B015C01812F0E94C6
:102D2000F191882359F0D7012D913D914D915C91FE
:102D3000C501B4010E94D8FA4B015C01F601808202
:102D40009182A282B3820AC0F70180819181A2811F
:102D5000B381F60180839183A283B3831F5FF4E084
:102D6000CF0ED11C24E0E20EF11C133069F685E48D
:102D70000E94D392882301F10E9452926B017C0140
:102D800083E00E94F191882371F020913509309100
:102D900036094091370950913809C701B6010E94A0
:102DA000D8FA6B017C01C092ED3BD092EE3BE092F1
:102DB000EF3BF092F03B10C08091350990913609BD
:102DC000A0913709B09138098093ED3B9093EE3B89
:102DD000A093EF3BB093F03B40E050E0BA0186E4B3
:102DE0000E94C0BB20E030E0A9010E945BFC1816E5
:102DF00084F40E94529220E030E040E752E40E94C6
:102E00005BFB60930001709301018093020190933A
:102E1000030180913601882309F4BCC01091E03B86
:102E200010FF3CC0C0903801D0903901E0903A01C9
:102E3000F0903B012091E13B3091E23B4091E33B3C
:102E40005091E43BC701B6010E945BFC181644F4A4
:102E5000C092E13BD092E23BE092E33BF092E43B54
:102E6000C0904401D0904501E0904601F0904701A8
:102E70002091E13B3091E23B4091E33B5091E43BB8
:102E8000C701B6010E94C1F387FF08C0C092E13BB1
:102E9000D092E23BE092E33BF092E43B11FF3CC076
:102EA000C0903C01D0903D01E0903E01F0903F0188
:102EB0002091E53B3091E63B4091E73B5091E83B68
:102EC000C701B6010E945BFC181644F4C092E53BB2
:102ED000D092E63BE092E73BF092E83BC09048019D
:102EE000D0904901E0904A01F0904B012091E53BE0
:102EF0003091E63B4091E73B5091E83BC701B6017A
:102F00000E94C1F387FF08C0C092E53BD092E63B28
:102F1000E092E73BF092E83B12FF3CC0C0904001DA
:102F2000D0904101E0904201F09043012091E93BB3
:102F30003091EA3B4091EB3B5091EC3BC701B6012D
:102F40000E945BFC181644F4C092E93BD092EA3B25
:102F5000E092EB3BF092EC3BC0904C01D0904D01E5
:102F6000E0904E01F0904F012091E93B3091EA3B17
:102F70004091EB3B5091EC3BC701B6010E94C1F37D
:102F800087FF08C0C092E93BD092EA3BE092EB3B5E
:102F9000F092EC3B8091EB0783FD85C020913509D1
:102FA0003091360940913709509138096091ED3BD5
:102FB0007091EE3B8091EF3B9091F03B0E94C1F30A
:102FC000882309F470C08091380381111BC060917F
:102FD00023377091243780912537909126370E94AE
:102FE000CDFB20911201309113012150310962175C
:102FF000730744F40E949D938BE194E10E943B93FC
:1030000011E001C010E0209135093091360940915E
:103010003709509138096091ED3B7091EE3B8091FA
:10302000EF3B9091F03B0E94D7FA6B017C0120E0CE
:1030300030E0A9010E945BFC87FF04C0F7FAF0941E
:10304000F7F8F09420910E0130910F01409110019A
:1030500050911101C701B6010E9427F420E030E031
:103060004AE754E40E945BFC18163CF40E949D93CE
:103070008CEF93E10E943B9302C01123A1F0809159
:10308000ED3B9091EE3BA091EF3BB091F03B8093F4
:10309000350990933609A0933709B09338098DEE1E
:1030A0009BE30E94D1862AE037ED43E25CE3609126
:1030B00000017091010180910201909103010E9431
:1030C00027F46B017C016091160170911701072EA6
:1030D000000C880B990B0E94C8F39B01AC01C7013F
:1030E000B6010E9427F469837A838B839C838E01C7
:1030F0000F5F1F4F2DEE3BE349EE5BE365EE7BE395
:1031000081EE9BE30E94AD5680E1E1EEFBE3A9E294
:10311000B9E001900D928A95E1F70C94EA2680E5DA
:103120000E94D392882329F00E940A926B017C01AD
:1031300003C0C12CD12C760183E50E94D392882351
:1031400061F00E94529220E030E04AE754E40E948D
:1031500027F40E94D4FB6B017C010E94278480919C
:10316000A83A811105C060E08FE892E00E94D8B7CC
:103170000E948F7CC60ED71EE81EF91E0E948F7C0F
:10318000DC01CB018C199D09AE09BF09B7FD02C056
:103190000C94EA2680E00E944E2FF0CF87E00E9438
:1031A0004BCA8E010F5F1F4F882311F40C94F72632
:1031B00082FF03C045EE51E002C044EF51E081FFC1
:1031C00003C027EE31E002C024EF31E080FF03C0EE
:1031D00089EE91E002C084EF91E05F934F933F93BB
:1031E0002F939F938F9388E992E09F938F931F93E0
:1031F0000F930E9459F30E949D93C8010E942D2FA6
:1032000060E0C8010E9471B80FB6F894DEBF0FBE2F
:10321000CDBF0C94EA268091E03B8770873011F097
:103220000C94082760E08FE40E94029381110C94B3
:10323000EA260C9408271092FF010C94EA268FE0EE
:103240008093FF010C94EA260E9452924B015C018C
:10325000F70120813181428153810E94D7FA2B01ED
:103260003C012DEB37E346E855EB0E945BFC87FD04
:1032700018C02DEB37E346E855E3C301B2010E94C5
:10328000C1F3181674F01F5FB4E0EB0EF11C14309C
:10329000A9F0D6018D916D010E94D392882399F3F4
:1032A000D3CF133011F401E002C033243394D7019B
:1032B0008D929D92AD92BC921397E5CF332019F079
:1032C0000E9495CB06C0002321F085E399E00E947F
:1032D000D1860E94D7CB0C94EA260E94B7780C9432
:1032E000EA2680914B3B90914C3B8337910509F442
:1032F000D5C60CF0B7C08C34910509F420C40CF08D
:103300005CC08831910509F42EC24CF582319105DB
:1033100009F4E0C56CF497FF02C00C94C02682301B
:1033200091050CF47BC1419709F4B0C10C94C026FF
:103330008531910509F4EFC12CF4449709F4BAC121
:103340000C94C0268631910509F4E9C1479711F024
:103350000C94C026E091493BF0914A3BF8C18D3175
:10336000910509F494C2B4F48A31910509F42EC28E
:103370000CF428C28B31910509F436C24C9711F038
:103380000C94C0268091493B90914A3B0E946E8FDD
:103390000C94EA268F31910509F426C30CF47EC201
:1033A0008032910509F4DDC28B34910511F00C9443
:1033B000C0260E9460CE0C94EA268936910509F455
:1033C00013C424F58335910509F47DC57CF481355A
:1033D000910509F45DC50CF06FC58D34910511F0B0
:1033E0000C94C0260E9499CE0C94EA26853591054E
:1033F00009F4A7C50CF46EC58C35910509F4C4C554
:103400008836910509F49FC30C94C0268E36910529
:1034100009F447C484F48B36910509F438C40CF4DC
:10342000F9C38C36910509F493C48D36910509F4DE
:10343000B1C30C94C0268037910509F48FC40CF4F5
:1034400043C48137910509F494C48237910511F082
:103450000C94C0260E94EB7785ED97E30E94CD3C4B
:103460000C94EA268232E1E09E0711F40C944F237B
:103470000CF063C08B39910509F4E1C46CF5883711
:10348000910509F4DAC664F48637910509F498C603
:103490000CF0D0C68537910509F482C60C94C0267D
:1034A0008D37910509F4F1C46CF48937910511F059
:1034B0000C94C02610924509109244090E9477CCC2
:1034C0000C94EA268C38910509F478C48139910569
:1034D00009F4BAC60C94C0268C3C910509F4B1C716
:1034E000ACF4883C910509F423C734F48E3B910574
:1034F00009F485C40C94C026893C910509F45FC782
:103500008B3C910509F47EC70C94C026833D910540
:1035100009F4B8C734F48D3C910509F4A0C70C94A4
:10352000C0268C3D910511F40C94D2228D3D91055D
:1035300011F40C94F9220C94C026853F21E09207E7
:1035400011F40C94FD249CF58F3241E0940711F4A2
:103550000C94F72484F48D32A1E09A0711F40C94B2
:10356000C12314F00C94B3248C32914011F40C94C8
:10357000AC230C94C0268039F1E09F0711F40C9421
:10358000FA243CF48033914011F40C9440240C94C0
:10359000C0268A3941E0940709F4E7C3843F91408B
:1035A00011F00C94C0260E94577F0C94EA268835AF
:1035B000A2E09A0711F40C942A25B4F4873FE1E0C5
:1035C0009E0711F40C94032514F40C940025883FF5
:1035D00021E0920711F40C940C258C30924011F4E8
:1035E0000C941D250C94C026803A43E0940709F4FE
:1035F000EDC13CF48B35924011F40C9421260C94CF
:10360000C026873EB3E09B0711F40C949826893EB0
:10361000934011F40C94A6260C94C02680E50E94D9
:10362000D392882329F00E940A926B017C0103C087
:10363000C12CD12C760183E50E94D392882361F0BE
:103640000E94529220E030E04AE754E40E9427F4BE
:103650000E94D4FB6B017C010E9427848091493B2E
:1036600090914A3B009721F061E00E9471B805C03B
:1036700060E08AEA92E00E94D8B740E0C701B60154
:103680000E946B340E942B780C94EA268091453B73
:1036900084FF02C00C94B7288091473B87FF02C08B
:1036A0000C94B7288091483B837011F00C94B72894
:1036B0000C94C9288091563983FF25C085ED92E08E
:1036C0000E943B938091563983FF17C08FE897E3A0
:1036D0000E94EBA68BE1EFE8F7E3DE011196019083
:1036E0000D928A95E1F760E070E0CE0101960E94AC
:1036F000B6E5CE0101960E94F0A686EC92E00E940B
:103700003B930C94EA260E949D9386EE92E00E94E1
:103710003B930C94EA260E9432E10C94EA268091B5
:10372000563982FF02C00C94EA260E945D8F809178
:103730005639877F8062809356391092910B109290
:10374000900B0C94EA26803209F410823196808125
:103750008111F9CF60E08091493B90914A3B0E94F2
:10376000B58F0C94EA268091220B8823F9F080E033
:1037700090E0A8E4B2E488A399A3AAA3BBA31C8EFB
:103780001D8E1E8E1F8E19821A821B821C8200E0E3
:1037900010E020E0AE01405E5F4FBE01645E7F4FEF
:1037A000CE0101960E94A8940C94EA260E946A2DEC
:1037B000882321F00E94CD900E9460CE0E942B7839
:1037C0000C94EA260E94FD970C94EA2680915639C3
:1037D00083FD02C00C94EA2683E50E94D3928111F6
:1037E0000C94D3280C94EA2683E40E9485928823C3
:1037F00019F18AEF92E00E943B9380913937882338
:1038000091F0BE016F5F7F4F86E397E30E94B2A500
:103810008E010F5F1F4FD8018D918D01882339F0E4
:103820000E94222EF8CF80EF92E00E943B938AE024
:103830000E94222E0C94EA268091563982FF21C0E4
:1038400089E093E00E943B93609152397091533923
:1038500080915439909155394AE00E94292E8FE287
:103860000E94222E60914E3970914F3980915039CB
:10387000909151394AE00E94292E0E94272F0C94E2
:10388000EA268BE193E00E943B930C94EA26809118
:1038900056398E7F809356390C94EA26809156399A
:1038A00083FD02C00C94EA260E94A07880915639CC
:1038B00083FD02C00C94EA264091493B50914A3B5B
:1038C000BE01645E7F4F80E00E9452B28C0100977F
:1038D00011F40C94EA266C8D7D8D19821C8222E0F5
:1038E000AC01CE0101960E9420AB811102C0F12CE7
:1038F00014C0CE0101960E94C0B18823C1F361E0DB
:10390000CE0101960E9496A5009789F325EEFC0151
:1039100020831C820E947AE2F82ECE0101960E943A
:10392000F0A6B801FF2099F084E493E00E9486930A
:103930008AE00E94222E109252391092533910922E
:103940005439109255390E94E38D0C94EA268CE28A
:1039500093E00E94869383EA98E20E943B930C9442
:10396000EA268091563982FD0E942784809156393B
:1039700083FD02C00C94EA2660E080E50E94029379
:10398000182F682F8091493B90914A3B0E94B58F38
:1039900083E50E94D392882381F00E941A92AB01A2
:1039A000BC0140935239509353396093543970930A
:1039B000553986E397E30E94A0E40E94CD9011114F
:1039C0000C94EA260E9460CE0C94EA262091493B92
:1039D00030914A3B90915639926090935639C90183
:1039E0000E946E8F0C94EA260E9411CE7B018C01FE
:1039F00020E831E541E050E00E9417FAC9016DE688
:103A000071E00E946DFA4B015C01C801B70120E131
:103A10003EE040E050E00E9417FACA01B90128E1F7
:103A200030E040E050E00E9417FA762E672EC62E56
:103A3000D72E2CE3222E312C412C512CC801B7015A
:103A4000A20191010E9417FAF62EE72ECA01B901D0
:103A5000A20191010E9417FACB018E010F5F1F4F47
:103A60008114910499F0EF92FF927F936F936F927C
:103A70007F92BF92AF929F928F9282E593E09F9345
:103A80008F931F930F930E9459F313C0A114B10495
:103A9000B1F0EF92FF927F936F936F927F92BF92FC
:103AA000AF9286E593E09F938F931F930F930E94AD
:103AB00059F30FB6F894DEBF0FBECDBF30C0CD288E
:103AC00079F0EF92FF927F936F936F927F928AE5E6
:103AD00093E09F938F931F930F930E9459F3E9CF25
:103AE000892B69F0EF92FF927F936F938EE593E0BD
:103AF0009F938F931F930F930E9459F3DACFEF9206
:103B0000FF9282E693E09F938F931F930F930E94FF
:103B100059F30F900F900F900F900F900F9060E05F
:103B2000C8010E9471B80E949D93B80186E693E097
:103B30000E9486938AE00E94222E0C94EA260E941C
:103B400084CE0C94EA268091EB0783FF02C00C948C
:103B5000EA260E94A19387FF02C00C94EA2689E41A
:103B60000E94D392882311F40C94E4280E942E9290
:103B700090E01816190614F481E090E026E0289FE2
:103B8000F001299FF00D1124EF56FD4F80819181A6
:103B90000C94EE288091EB0783FF02C00C94EA2678
:103BA0000E94A193F82E87FF02C00C94EA2689E4B4
:103BB0000E94D392082F882311F40C94F7280E94B6
:103BC0002E9290E01816190614F481E090E026E099
:103BD000289FF001299FF00D1124EF56FD4F8081A1
:103BE000918110E00C9407290E94A193182F87FD62
:103BF0000AC089EE90E20E943B93812F0E943867B1
:103C00008AE00E94222E2196BFAD2197B093000238
:103C10000C94302C80E50E94C57881110C94EA2622
:103C200081E40E948592882329F060912703062F62
:103C300010E002C00FEF10E089E40E94D3928823C5
:103C400099F00E942E9290E01816190614F481E063
:103C500090E026E0289FF001299FF00D1124EF56F7
:103C6000FD4F0481158108C083E50E94D39288230B
:103C700019F00E941A928B01B8010F3F110519F03B
:103C800010F06FEF70E0609327030C94EA2680E554
:103C90000E94C57881110C94EA26109227030C9497
:103CA000EA268EE40E94D392882311F40C94EA262B
:103CB0000E941A926093D23B7093D33B8093D43B83
:103CC0009093D53B0C94EA2683E50E948592882345
:103CD00029F083E50E94C5788093EB070E949D93AD
:103CE0008CE793E00E943B938091EB07882369F176
:103CF0009FECE92E96E0F92E00E010E020E08091A4
:103D0000EB0790E0A0E0B0E0002E04C0B695A795C8
:103D1000979587950A94D2F780FF0EC0DD24D3943F
:103D2000D20E222319F08CE20E94222EF7018591F7
:103D300094910E943B932D2D0F5F1F4FE2E0EE0EFA
:103D4000F11C05301105D9F672CD88E793E06DCDF1
:103D50001092013B109227010C94EA2641E060E0AA
:103D600070E083E893E00E94702C0E94E82C0C9491
:103D7000EA2683E50E94D392882381F00E942E9246
:103D8000282F30E02D33310524F4809304010C9466
:103D9000EA268CE3809304010C94EA260E949D930A
:103DA0004091040150E060E070E081E993E00E94FE
:103DB0004A938AE00E94222E0C94EA268091EB0717
:103DC00083FF02C00C94EA2689E40E94D3928823E0
:103DD00011F40C9450290E942E9290E018161906A6
:103DE00014F481E090E026E0289FF001299FF00D77
:103DF0001124EF56FD4F628173810C945A298091F2
:103E0000EB0783FDE7C789E40E94D392882311F46E
:103E10000C946D290E942E9290E01816190614F445
:103E200081E090E026E0289FF001299FF00D112409
:103E3000EF56FD4F6281738118AA0C947D2983E5AA
:103E40000E94D392882309F4C5C70E942E92182F8E
:103E500090E0CD970CF01CE31093FA010E948F7C48
:103E60006B017C01212F30E0A8EEB3E00E9444FA00
:103E7000C60ED71EE81EF91EC092F601D092F701B9
:103E8000E092F801F092F901A5C70E94FD97A2C740
:103E90000E94E2670E9499CE0E9438840E948E2D73
:103EA00068EE73E080E090E00E94179360E086EB9C
:103EB00093E00E94D8B78EC78091FF018F7D80610B
:103EC0008093FF0187C78091FF018F7E806280937E
:103ED000FF0180C783E50E94D3928823E9F00E9406
:103EE0008F7C6093053570930635809307359093EA
:103EF00008350E94529220E030E04AE754E40E94E4
:103F000027F40E94D4FB609305017093060180930F
:103F10000701909308015EC78091453B84FF02C072
:103F20000C94292B8091473B87FF02C00C94292BCE
:103F30008091483B837011F00C94292B0E943884A7
:103F400049C783E50E948592882309F443C70E94EC
:103F50008F7C609305357093063580930735909379
:103F600008350E94529220E030E04AE754E40E9473
:103F700027F40E94D4FB6093FB017093FC018093B3
:103F8000FD019093FE0126C70E94A19387FD22C7E1
:103F90009091453B94FD04C09091473B97FF0AC028
:103FA000BEE7CB2EB1E0DB2E1CEEE12E17E0F12EAA
:103FB00010E009C09091483B937091F7682F81E021
:103FC0000E94CA9307C7D6018D916D010E94D392BA
:103FD000882309F459C0133009F04FC00E9452924F
:103FE0004B015C0120E030E040EA51E40E94C1F363
:103FF00087FF3AC0A501940160910C0870910D08EB
:1040000080910E0890910F080E945BFB2B013C01F0
:104010009B01AC0160911C0870911D0880911E08E5
:1040200090911F080E9427F460931C0870931D084C
:1040300080931E0890931F0860911B0370911C03CE
:1040400080911D0390911E030E94C6F3A30192016B
:104050000E9427F40E94D4FB60931B0370931C03FF
:1040600080931D0390931E0380920C0890920D087C
:10407000A0920E08B0920F0807C00E945292F7015A
:10408000648B758B868B978B1F5FF4E0EF0EF11CB2
:10409000143009F098CF0E9406889CC68CE095E009
:1040A0000E943B9360E08CEF94E00E949EC360E02E
:1040B00087EE94E00E949EC361E08DE690E20E944C
:1040C0009EC361E08CED94E00E949EC361E08CECA5
:1040D00094E00E949EC360E083EC94E00E949EC343
:1040E00061E089EB94E00E949EC360E08FEA94E077
:1040F0000E949EC360E088EA94E00E949EC360E054
:1041000080EA94E00E949EC360E082E994E00E940D
:104110009EC360E084E894E00E949EC360E085E76F
:1041200094E00E949EC360E087E694E00E949EC3F4
:1041300060E081E594E00E949EC360E080E494E04A
:104140000E949EC360E081E394E00E949EC361E010
:104150008AE294E00E949EC360E085E194E00E94C0
:104160009EC360E087E094E00E949EC361E084EF1C
:1041700093E00E949EC360E087EE93E00E949EC39E
:1041800060E082EE93E00E949EC361E085ED93E0E3
:104190000E949EC360E081EC93E00E949EC31AC619
:1041A0008091493B90914A3B009709F407CBDC0191
:1041B0002C91222309F402CB60E00E9471B80AC658
:1041C0000091493B10914A3B94E0F12C40E0915022
:1041D00021F1F8018081282F2B7F213421F42181C6
:1041E0002133D9F407C08035C1F4818180538A30EE
:1041F00048F013C0813421F0853421F441E002C03D
:10420000FF24F39498012E5F3F4F89012F5F3F4FAA
:10421000F80180818032C9F3DACF41110E949D9369
:10422000FF2021F08DED95E00E943B93C8010E9494
:104230002D2FD0C50E945CCCCDC52093450920937D
:1042400044090E9477CCC6C560E070E083E50E9417
:10425000E092823038F00E94999381EE95E00E94BE
:104260003B93B8C58C01112788E40E94D392882320
:10427000E1F00E942A928A3A910544F00E942A9223
:104280008530914034F40E942A9205C08AEA90E079
:1042900002C084E091E026E0209FF001219FF00D14
:1042A0001124EF56FD4F9183808382E40E94D392C4
:1042B0008823D9F00E942A92059744F00E942A92FE
:1042C0008F36910534F40E942A9205C085E090E073
:1042D00002C08EE690E026E0209FF001219FF00DC5
:1042E0001124EF56FD4F9383828386E40E94D3927C
:1042F000882309F46FC50E942A9297FD09C00E9485
:104300002A928F3F910509F034F40E942A9205C049
:1043100080E090E002C08FEF90E026E0209FF00167
:10432000219FF00D1124EF56FD4F9583848352C5D4
:104330000E94A193182F87FD4DC50091A10284E42E
:104340000E94D392882311F40C944E2B0E94529217
:104350006B017C0120E030E0A9010E94C1F38823B9
:1043600041F124E01202F0011124E356FD4FC08216
:10437000D182E282F38220E030E0A90160919D02C7
:1043800070919E0280919F029091A0020E94C1F3C1
:1043900081110CC080E090E0A0EEBFE380939D020D
:1043A00090939E02A0939F02B093A00201E00C9410
:1043B0004E2B80E08093A1020E94F27E0BC50E94EA
:1043C000A19387FD07C5AEE7EA2EA1E0FA2E0CEE19
:1043D00017E0D7018D917D010E948592882359F0C5
:1043E0000E9452920E94D4FBF80160837183828301
:1043F00093830E94E0830C5F1F4FF7E00C3F1F0781
:1044000041F7E8C40E94A19387FDE4C4FEE7EF2EC4
:10441000F1E0FF2E0CEE17E0D7018D917D010E9497
:104420008592882339F00E945292F80164A375A303
:1044300086A397A30C5F1F4FF7E00C3F1F0761F7A0
:10444000C9C48091463B87FF02C00C94542B8091D5
:10445000473B8E7011F00C94542B0C949A2B809146
:10446000453B81FF02C00C94C22B8091463B81FFEB
:1044700002C00C94C22B8091473B8C7011F00C94BD
:10448000C22BA8C4209138013091390140913A01E2
:1044900050913B0128AB39AB4AAB5BAB40903C0140
:1044A00050903D0160903E0170903F01809040012E
:1044B00090904101A0904201B0904301C09044010E
:1044C000D0904501E0904601F0904701809148016D
:1044D00090914901A0914A01B0914B018CAB9DABE9
:1044E000AEABBFAB20914C0130914D0140914E01DC
:1044F00050914F0128AF39AF4AAF5BAF0E949D93F7
:1045000082E496E00E943B9383E50E948592882393
:1045100021F00E94429280933601809136018823D7
:1045200019F084E792E002C088E095E00E943B9396
:104530008AE396E00E943B9348A959A96AA97BA9FE
:1045400084E19BE00E946893B301A20183EE97E1AE
:104550000E946893B501A4018CED97E10E946893D5
:1045600084E196E10E943B9382E396E00E943B93B4
:10457000B701A60184E19BE00E9468934CA95DA964
:104580006EA97FA983EE97E10E94689348AD59AD6B
:104590006AAD7BAD8CED97E10E9468938AE00E9442
:1045A000222E18C483E50E94D392882331F00E9402
:1045B0002A9290931701809316018091453B909128
:1045C000463BA091473BB091483B892B8A2B8B2BD4
:1045D00009F000C4609116017091170182E596E020
:1045E0000E94799385E20E94222E8AE00E94222E68
:1045F000F1C30E94A193F82E87FDECC383E50E94CE
:10460000D3920F2D0F2C000C110B882369F10E94FF
:104610002A92F801EE0FFF1FE85DFE4F9183808321
:10462000000F111F000F111FA801425F5E4F7A019A
:10463000BC01990F880B990B0E94C8F32AE037ED53
:1046400043E25CE30E9427F4F801EE5EF44F208120
:104650003181428153810E9427F4D7016D937D936C
:104660008D939C931397B6C30E949D9385E40E94FB
:10467000222E80E38F0D0E94222E000F111FF801C1
:10468000E85DFE4F6081718186E596E00E94799336
:1046900085E20E94222E8AE00E94222E9BC38AE598
:1046A0000E94D392811106C083E50E94D392882391
:1046B00009F443C00E94529220E030E040E050EC08
:1046C0000E94C1F387FF02C00C94222C0E945292D8
:1046D00020E030E040E050E40E945BFC181614F447
:1046E0000C941B2C0E9452926B017C0184E00E946E
:1046F0004BCA811122C020910808309109084091CD
:104700000A0850910B08C701B6010E9427F40E94C5
:10471000CDFB2091C9083091CA08260F371F30936E
:10472000CA082093C90820917C0830917D08620F47
:10473000731F70937D0860937C088091473B87FFCF
:1047400002C00C94292C8091483B837011F00C948A
:10475000292C0E949D933EC364E071E083E50E9492
:10476000EF928C0168EE73E080E50E94EF92893849
:10477000B3E19B0710F088E893E1B8010E94A1B76C
:1047800029C385E40E94C578811173C080E50E9429
:104790008592882351F00E94529260932A37709339
:1047A0002B3780932C3790932D3789E40E94859284
:1047B000882381F00E9452922CEA35EC47E25EE3B6
:1047C0000E9427F460932E3770932F3780933037F1
:1047D0009093313784E40E948592882381F00E946F
:1047E00052922CEA35EC47E25EE30E945BFB609359
:1047F00032377093333780933437909335370E9434
:104800009D9340912A3750912B3760912C377091AE
:104810002D3786E696E00E9468932CEA35EC47E255
:104820005EE360912E3770912F37809130379091F1
:1048300031370E945BFBAB01BC0182E696E00E942F
:1048400068932CEA35EC47E25EE360913237709171
:10485000333780913437909135370E9427F4AB017C
:10486000BC018EE596E00E9468938AE00E94222EA9
:10487000B1C20E9499938AE696E00E943B93AAC235
:1048800080E50E948592882351F00E9452926093A5
:10489000890870938A0880938B0890938C0889E428
:1048A0000E948592882381F00E9452922CEA35EC76
:1048B00047E25EE30E9427F460938D0870938E08B0
:1048C00080938F089093900884E40E9485928823B7
:1048D00081F00E9452922CEA35EC47E25EE30E949E
:1048E0005BFB609391087093920880939308909378
:1048F00094080E949D934091890850918A08609184
:104900008B0870918C0886E696E00E9468932CEAEA
:1049100035EC47E25EE360918D0870918E088091DE
:104920008F08909190080E945BFBAB01BC0182E66E
:1049300096E00E9468932CEA35EC47E25EE36091D2
:1049400091087091920880919308909194080E9428
:1049500027F4AB01BC018EE596E00E9468938AE0E3
:104960000E94222E37C283E50E948592182F882349
:1049700071F00E9452920E94CDFB709313016093DC
:10498000120121E0672B09F020E02093380380E535
:104990000E948592882359F02091120130911301D1
:1049A000232B11F00E9442928093380313C21111FD
:1049B00011C20E949D9385E996E00E943B938091ED
:1049C0003803882319F08FE49AE202C08CE796E05E
:1049D0000E943B93609112017091130184E896E06C
:1049E0000E94799380E896E00E943B93F3C10E9475
:1049F000D7BBF0C10E942784EDC10E94F5DCEAC15B
:104A00000E9478D6E7C161E083E50E94029391E0BD
:104A100089270E946C44DEC181E08093003C0E94A3
:104A200095D71092003C882309F4D4C10E949D932D
:104A300088EA96E00E943B93CDC18091563982FF6F
:104A400004C0806480935639C5C183FFC3C10E94EE
:104A5000A078C0C10E94A19387FDBCC1482F61E02E
:104A600081E00E94F3E0809147098770873021F050
:104A700082E497E10E94B8C385E40E94859288236E
:104A800081F00E9452926B017C0120E030E0A9018C
:104A90000E945BFC87FF0BC0F7FAF094F7F8F094E4
:104AA00006C0C12CD12C30E8E32E30E4F32EF7FA07
:104AB000F094F7F8F094CCA6DDA6EEA6FFA68CE065
:104AC000E6E6F1E0DE01119601900D928A95E1F79C
:104AD0008AE50E94D392882351F040E050E0BA0169
:104AE0008AE50E94C0BB69877A878B879C8788E5A7
:104AF0000E94D392882351F040E050E0BA0188E54B
:104B00000E94C0BB69837A838B839C8389E50E9462
:104B1000D392882351F040E050E0BA0189E50E9429
:104B2000C0BB6D837E838F83988785E50E948592C5
:104B3000882329F00E9452926B017C0108C0C0902A
:104B40008902D0908A02E0908B02F0908C0220E0E3
:104B500030E0A901C701B6010E945BFC87FF04C0D9
:104B6000F7FAF094F7F8F094F7FAF094F7F8F09475
:104B7000C8A6D9A6EAA6FBA61CA21DA21EA21FA219
:104B80008CE40E948592882329F00E9452926B0146
:104B90007C0108C0C0908D02D0908E02E0908F0200
:104BA000F090900220E030E0A901C701B6010E9418
:104BB0005BFC87FF04C0F7FAF094F7F8F094C8A202
:104BC000D9A2EAA2FBA266E070E082E40E94E09231
:104BD000F82E21E0AE01485D5F4FBE016F5F7F4F51
:104BE000CE018C960E94E796882309F4F3C06F2DBE
:104BF00081E00E946E9682E50E94D392882331F074
:104C00000E9452920E94CDFB8B0102C000E010E096
:104C100080E090E0A8E4B2E48C8F9D8FAE8FBF8FD0
:104C20008091220B882309F4D5C02F2DAE01445E5C
:104C30005F4FBE01605E7F4FCE0184960E94A894B4
:104C4000C9C00E94A193082F87FDC4C085E50E94BA
:104C500085928823A1F1E02E002E000CFF080E940F
:104C600052924B015C0120E030E0A9010E945BFC04
:104C700087FF04C0B7FAB094B7F8B094C70123E037
:104C8000880F991F2A95E1F7FC01E757FD4F7F0137
:104C900080829182A282B38220E030E04AE754E42D
:104CA000C501B4010E945BFC18164CF480E090E052
:104CB000AAE7B4E4F70180839183A283B3838CE4F1
:104CC0000E948592882309F485C0002E000C110BE8
:104CD0000E9452926B017C0120E030E0A9010E9409
:104CE0005BFC87FF04C0F7FAF094F7F8F09420E03B
:104CF00030E04AE754E4C701B6010E945BFC98012A
:104D000093E0220F331F9A95E1F7F901E757FD4F22
:104D100018162CF0C482D582E682F7825BC080E050
:104D200090E0AAE7B4E484839583A683B78352C056
:104D300081E080930E0B1092FD3A60E083E50E94C3
:104D40000293811147C00E948BC144C00E9411CEC2
:104D50006D3371058105910520F08BEC96E00E9482
:104D6000B8C387EC96E00E94B8C383EB96E00E943C
:104D70003B9381EE96E190934A09809349092AC0BA
:104D80000E94B77827C000914B3B10914C3B0E948A
:104D90008F7C60930535709306358093073590932B
:104DA00008350023B9F00E949D9384E50E94222ECD
:104DB000B8017727072E000C880B990B0E94962EBE
:104DC00080E20E94222E8AE696E00E943B9302C077
:104DD0000E94B7782B96FFAD2B97F11102C00E946D
:104DE0007BC121962FAD21972093000239C58CE01D
:104DF000E2E7F1E0D80101900D928A95E1F760E0D9
:104E000070E080E50E94EF92B8010E94E0B3E2CF2B
:104E10000E942784109237010E948F7C6093053591
:104E20007093063580930735909308358091000183
:104E300090910101A0910201B091030180930302BE
:104E400090930402A0930502B0930602809116018C
:104E500090911701909302028093010284E690E002
:104E6000909317018093160181E0809345090E9479
:104E700077CC8AE50E948592082F88E50E9485926A
:104E8000182F89E50E94859218136EC1011711F041
:104E9000312E6BC13324339411E031E038AF82E519
:104EA0000E94D392882369F00E9452926B017C0188
:104EB00020E030E0A9010E94C1F3882309F453C027
:104EC00006C0C12CD12C50E2E52E51E4F52E111173
:104ED00003C0332009F41EC120E030E0A901C7015E
:104EE000B6010E94D8FA962EA72EB82EC92ED090C1
:104EF0003109E0903209F0903309009134092D2DE9
:104F00003E2D4F2D502F0E94C1F387FD03C0D92C99
:104F100075010C2D80E090E0A0E8B0E48C8F9D8FAF
:104F2000AE8FBF8F20E030E048EC53E46D2D7E2D36
:104F30008F2D902F0E94C1F387FF02C08F2D04C0D8
:104F4000D12CE12C88EC03E44D2D5E2D682F702FC1
:104F500049835A836B837C83BE01645E7F4FCE019D
:104F600001960E944DCB112309F4CFC0332009F4E0
:104F7000C9C01092290910922A0910922B09109287
:104F80002C0910922D0910922E0910922F091092BF
:104F900030090E9495CBEEE3F3E244914DAFE2ED90
:104FA000FDE1C590D590E590F490E6EDFDE18590AA
:104FB0009590A590B490A7019601C501B4010E94F7
:104FC000C1F387FF05C0A7019601C501B40104C064
:104FD000A5019401C701B6010E945BFB2B013C01B6
:104FE000E7E2F3E285919591A591B49188AB99ABF5
:104FF000AAABBBABE3E2F3E2259135914591549125
:105000002CAB3DAB4EAB5FABBC01CD010E945BFC5A
:10501000181634F42CA83DA93CAF0EA91FA905C051
:1050200028A849A94CAF0AA91BA9A3019201C30151
:10503000B2010E9427F420E030E040E85FE30E94E4
:10504000D8FA0E9499FC222D3CADA8010E9427F4B9
:1050500068A379A38AA39BA3EFE3F3E2149120E072
:1050600030E040EC5FE3C501B4010E9427F44B013E
:105070005C01612F110F770B880B990B0E94C8F30D
:105080009B01AC01C501B4010E9427F469837A83B6
:105090008B839C8320E030E040EC5FE3C701B601E6
:1050A0000E9427F46B017C015DAD652F550F770BD6
:1050B000880B990B0E94C8F39B01AC01C701B60194
:1050C0000E9427F46C8F7D8F8E8F9F8FAE01405E84
:1050D0005F4FBE016F5F7F4FCE014C960E942BCB7E
:1050E0000E9482CC1092290910922A0910922B0951
:1050F00010922C0910922D0910922E0910922F094E
:105100001092300980E00E944BCD332019F081E0ED
:105110000E944BCD88AD882319F082E00E944BCDD0
:105120000E9495CB809144098093450980910302A8
:1051300090910402A0910502B091060280930001B3
:1051400090930101A0930201B093030180910102A9
:1051500090910202909317018093160183E080934F
:105160001C010E94D7CB36CE382E08AF98CE88E5EA
:105170000E94859281115E9889E50E948592811135
:105180005E988AE50E948592882309F423CE1598BB
:1051900021CE60E08DEB92E00E94D8B75E985E98D9
:1051A00015985E9817CE0E941A92AB01BC014093ED
:1051B000523950935339609354397093553986E37B
:1051C00097E30E94A0E406CE83E50E94D392882351
:1051D00059F00E9452920E94CDFBCB010E9411AC6B
:1051E00061E080E00E94AAE60E94C7EDF3CD83E56E
:1051F0000E94D392182F811105C082E50E94D3929C
:10520000882341F10E9452920E94CDFBCB010E9463
:1052100011AC61E081E00E94AAE6609127377091AD
:105220002837072E000C880B990B0E94C8F34B01FE
:105230005C01409023375090243760902537709060
:105240002637A30192010E945BFC181634F111234A
:1052500059F001E00E94C7ED002309F4BBCD612F96
:105260008F2D0E9421ACB6CDA3019201C501B401DE
:105270000E945BFC18168CF08CE993E09F938F934F
:1052800083E793E09F938F931F920E9456B80F90ED
:105290000F900F900F900F90DCCF8BEA93E0EECF42
:1052A00083E50E94D392882309F494CD0E94529200
:1052B0000E94CDFB6E3671056CF4962F872F90936C
:1052C0008608809387080E94006761E080E00E9462
:1052D000AAE680CD9EE680E0F2CF83E50E94D392DD
:1052E00088AB811106C082E50E94D392882309F41D
:1052F00071CD0E9452920E94CDFB6E3671050CF06A
:10530000A5C1962F872F90938608809387080E94C7
:10531000006760E081E00E94AAE6609186087091D3
:105320008708072E000C880B990B0E94C8F3209168
:1053300082083091830840918408509185080E942A
:105340005BFC18161CF487EA93E002C088E993E03E
:1053500060E00E94D8B781E08093270118AE19AEB3
:105360001AAE1BAE25961CAE1DAE1EAE1FAE259707
:1053700027961FAE2797FCE32896FFAF28972CE1CE
:1053800029962FAF299736E42A963FAF2A97C12C4A
:10539000D12C00E8E02E8FEBF82E1CAA41E02696D7
:1053A0004FAF2697812C912C540160918608709103
:1053B0008708072E000C880B990B0E94C8F3162F44
:1053C000072F382E292E9601A7010E94C1F38823AA
:1053D00031F12091820830918308409184085091E6
:1053E000850888A9612F702F811109C0832D922D06
:1053F0000E94C1F3881F8827881F8CAB16C0832D9D
:10540000922D0E94C1F387FF0FC08091270188234E
:1054100009F4E0CC109227010E942B78DBCC1C2DE4
:105420000D2D3E2C2F2C01C01CAA0E948F7C6B01DD
:105430007C01DC01CB0125962CAD3DAD4EAD5FADC1
:105440002597821B930BA40BB50BB7FD35C0D70175
:10545000C60188519C4FAF4FBF4F25968CAF9DAF73
:10546000AEAFBFAF259780E00E94386788EF9FE11D
:105470000E943B9381149104A104B104B9F0D501B9
:10548000C401805F984DAF4FBF4FBC01CD016C1977
:105490007D098E099F0928EE33E040E050E00E942C
:1054A00017FACA01B9010E94962E03C08FE30E9429
:1054B000222E8AE00E94222E80E00E944E2F0E941F
:1054C0008F7C6093053570930635809307359093F4
:1054D0000835909182089CAFA0918308ADAFB09140
:1054E0008408BEAFE0918508EFAF292F3A2F4B2FEC
:1054F0005E2F612F702F832D922D0E94D7FA2B01E2
:105500003C0120E030E0A9010E945BFC87FF04C061
:1055100077FA709477F8709481149104A104B1041F
:10552000F1F420E030E040E85FE3C301B2010E9403
:10553000C1F387FF20C02696FFAD2697FF2329F0F1
:1055400085E09DE0A0E0B0E003C080E090E0DC01F9
:1055500046015701880E991EAA1EBB1E0CC020E0F2
:1055600030E040E450E4C301B2010E945BFC181635
:1055700014F4460157012CA9222309F448C088AD30
:1055800099ADAAADBBAD892B8A2B8B2B61F0D701CE
:10559000C60128AD39AD4AAD5BAD821B930BA40BA0
:1055A000B50BB7FD34C02CAD3DAD4EAD5FAD27960C
:1055B0006FAD279728967FAD289729968FAD2997AD
:1055C0002A969FAD2A970E94D7FA20E030E040E863
:1055D0005FE30E94C1F387FD18CFD701C601805A4F
:1055E0009541AF4FBF4F88AF99AFAAAFBBAF9CAD4E
:1055F00027969FAF2797ADAD2896AFAF2897BEAD42
:105600002996BFAF2997EFAD2A96EFAF2A978091E1
:105610002701882309F4F9CE81149104A104B1046F
:1056200041F426961FAE2697C12ED02EE32CF22CE5
:10563000BCCEF0E1CF1AF7E2DF0AE108F108C818A2
:10564000D908EA08FB08F7FCECCFDFCE9EE680E045
:105650005ACE0E94278488E50E948592882331F0E3
:105660005E9A809147098E7F8093470989E50E9461
:105670008592882331F05E9A809147098D7F8093CF
:1056800047098AE50E948592882309F4A3CB159ADD
:10569000809147098B7F809347099CCB602F83E5DE
:1056A0000E9402930C94DA2183E50E94D39288230E
:1056B00091F00E9452926093200870932108809389
:1056C00022089093230860932808709329088093F8
:1056D0002A0890932B0880E50E94D392882351F0EA
:1056E0000E945292609320087093210880932208B0
:1056F0009093230882E50E94D392882351F00E9460
:105700005292609324087093250880932608909302
:10571000270884E50E94D392882309F45BCB0E947A
:105720005292609328087093290880932A089093D6
:105730002B0850CB409120085091210860912208FD
:105740007091230883E096E00E94689340912408BA
:105750005091250860912608709127088FED99E0F7
:105760000E946893409128085091290860912A0866
:1057700070912B0889EB9AE00E9468938AE00E945E
:10578000222E28CB82E40E948592882351F00E9429
:105790000A926093FC077093FD078093FE07909335
:1057A000FF0783E50E948592882351F00E94529260
:1057B00060932C0870932D0880932E0890932F08E7
:1057C00084E50E948592882351F00E945292609352
:1057D00030087093310880933208909333088AE43C
:1057E0000E948592882309F4F5CA0E9452926B01A7
:1057F0007C012AE037ED43E25CE30E945BFC87FD1D
:1058000013C02AE939E949E95EE3C701B6010E94FC
:10581000C1F318164CF0C0920B03D0920C03E09227
:105820000D03F0920E03D6CA0E94999383E196E08D
:105830000E943B93CFCAC12CD12CE12C50E4F52E11
:105840000C947623C12CD12CE12C40ECF42E0C943A
:10585000762382E50E94859281110C94A923BACA0D
:10586000C65BDF4F0FB6F894DEBF0FBECDBFDF9132
:10587000CF911F910F91FF90EF90DF90CF90BF904D
:10588000AF909F908F907F906F905F904F903F90E0
:105890002F9008958091220B81110AC080912809D0
:1058A000813041F08091563982FB882780F9089534
:1058B00080E0089581E008955E9A809147098E7F87
:1058C000809347095E9A809147098D7F80934709AD
:1058D000159A809147098B7F809347095E9A0895B6
:1058E000EC018B01F42E0E94E2670E9499938CECEC
:1058F00098E00E943B930115110511F40CE911E2A7
:10590000209711F4C3ECD8E00E94CD651F930F934C
:10591000DF93CF938CEB98E09F938F9381E08F93ED
:105920000E9456B80E94C59BC0910038C695C69586
:105930008BEF97E30E94DFAFDC2FDD0F1D2F1C0FD5
:105940008DB79EB707960FB6F8949EBF0FBE8DBF5A
:1059500083E00E9495D310923638C093373888EA96
:105960009AE30E9419D510923638D09337388DEAD1
:1059700098E00E94B7D4109236381093373880EAF6
:1059800098E00E94B7D48FEF97E30E9467AE811131
:10599000DFCF89EE93E030E6019729F0232F2A9597
:1059A0000000E9F7F9CFF89489EE93E038EE01971B
:1059B00029F0232F2A950000E9F7F9CF0E94E2672A
:1059C000FF2019F00E945C2C01C05E9AA895FECFC2
:1059D0004F925F926F927F928F929F92AF92BF92FF
:1059E000CF92DF92EF92FF920E941F86F82E809155
:1059F000C0378093BF378093BE378093BD3784E62E
:105A00008093BC370E94328680ED93E09093EA0742
:105A10008093E907F1100E942C8681E08093A30215
:105A20000E94278481E00E9410894B015C0180E084
:105A30000E9410892B013C0160930A0270930B02B3
:105A400080930C0290930D0280920E0290920F02AE
:105A5000A0921002B092110282E00E9410896B01A4
:105A60007C0160931202709313028093140290934E
:105A7000150283E00E9410894092290950922A0958
:105A800060922B0970922C0980922D0990922E0918
:105A9000A0922F09B0923009C0923109D0923209F8
:105AA000E0923309F0923409609335097093360916
:105AB0008093370990933809FF90EF90DF90CF9053
:105AC000BF90AF909F908F907F906F905F904F901E
:105AD0000C9495CB9091563993FB882780F993FFCE
